{
  "_format": "hh-sol-artifact-1",
  "contractName": "RockPaperScissors",
  "sourceName": "contracts/RockPaperScissors.sol",
  "abi": [
    {
      "inputs": [],
      "stateMutability": "payable",
      "type": "constructor"
    },
    {
      "anonymous": false,
      "inputs": [
        {
          "indexed": true,
          "internalType": "address",
          "name": "from",
          "type": "address"
        },
        {
          "indexed": false,
          "internalType": "uint256",
          "name": "user_choice",
          "type": "uint256"
        },
        {
          "indexed": false,
          "internalType": "uint256",
          "name": "contract_choice",
          "type": "uint256"
        },
        {
          "indexed": false,
          "internalType": "uint256",
          "name": "outcome",
          "type": "uint256"
        },
        {
          "indexed": false,
          "internalType": "uint256",
          "name": "timestamp",
          "type": "uint256"
        }
      ],
      "name": "NewThrow",
      "type": "event"
    },
    {
      "inputs": [],
      "name": "getAllThrows",
      "outputs": [
        {
          "components": [
            {
              "internalType": "address",
              "name": "thrower",
              "type": "address"
            },
            {
              "internalType": "uint256",
              "name": "user_choice",
              "type": "uint256"
            },
            {
              "internalType": "uint256",
              "name": "contract_choice",
              "type": "uint256"
            },
            {
              "internalType": "uint256",
              "name": "outcome",
              "type": "uint256"
            },
            {
              "internalType": "uint256",
              "name": "timestamp",
              "type": "uint256"
            }
          ],
          "internalType": "struct RockPaperScissors.RPSThrow[]",
          "name": "",
          "type": "tuple[]"
        }
      ],
      "stateMutability": "view",
      "type": "function"
    },
    {
      "inputs": [],
      "name": "getTotalThrows",
      "outputs": [
        {
          "internalType": "uint256",
          "name": "",
          "type": "uint256"
        }
      ],
      "stateMutability": "view",
      "type": "function"
    },
    {
      "inputs": [
        {
          "internalType": "uint256",
          "name": "_choice",
          "type": "uint256"
        }
      ],
      "name": "rpsThrow",
      "outputs": [],
      "stateMutability": "nonpayable",
      "type": "function"
    },
    {
      "inputs": [
        {
          "internalType": "address",
          "name": "",
          "type": "address"
        }
      ],
      "name": "userLastThrownAt",
      "outputs": [
        {
          "internalType": "uint256",
          "name": "",
          "type": "uint256"
        }
      ],
      "stateMutability": "view",
      "type": "function"
    },
    {
      "inputs": [
        {
          "internalType": "address",
          "name": "",
          "type": "address"
        }
      ],
      "name": "userTotalWins",
      "outputs": [
        {
          "internalType": "uint256",
          "name": "",
          "type": "uint256"
        }
      ],
      "stateMutability": "view",
      "type": "function"
    }
  ],
  "bytecode": "0x6080604052620000336040518060600160405280603d8152602001620013b1603d91396200003960201b620007b41760201c565b620001cd565b620000d98160405160240162000050919062000146565b6040516020818303038152906040527f41304fac000000000000000000000000000000000000000000000000000000007bffffffffffffffffffffffffffffffffffffffffffffffffffffffff19166020820180517bffffffffffffffffffffffffffffffffffffffffffffffffffffffff8381831617835250505050620000dc60201b60201c565b50565b60008151905060006a636f6e736f6c652e6c6f679050602083016000808483855afa5050505050565b600062000112826200016a565b6200011e818562000175565b93506200013081856020860162000186565b6200013b81620001bc565b840191505092915050565b6000602082019050818103600083015262000162818462000105565b905092915050565b600081519050919050565b600082825260208201905092915050565b60005b83811015620001a657808201518184015260208101905062000189565b83811115620001b6576000848401525b50505050565b6000601f19601f8301169050919050565b6111d480620001dd6000396000f3fe608060405234801561001057600080fd5b50600436106100575760003560e01c806347142e191461005c5780635ef82b711461008c5780636f4cb34d146100bc5780639284eb7d146100da5780639b39af08146100f6575b600080fd5b61007660048036038101906100719190610a77565b610114565b6040516100839190610e39565b60405180910390f35b6100a660048036038101906100a19190610a77565b61012c565b6040516100b39190610e39565b60405180910390f35b6100c4610144565b6040516100d19190610e39565b60405180910390f35b6100f460048036038101906100ef9190610aa0565b61018f565b005b6100fe6106d7565b60405161010b9190610d17565b60405180910390f35b60036020528060005260406000206000915090505481565b60046020528060005260406000206000915090505481565b60006101876040518060400160405280601881526020017f5765206861766520256420746f74616c207468726f777321000000000000000081525060005461084d565b600054905090565b42600360003373ffffffffffffffffffffffffffffffffffffffff1673ffffffffffffffffffffffffffffffffffffffff1681526020019081526020016000208190555060016000808282546101e59190610ef9565b9250508190555061022c6040518060400160405280601381526020017f257320686173207468726f776e2061202573210000000000000000000000000081525033836108e9565b600080600360015442446102409190610ef9565b61024a9190610ef9565b6102549190610fbe565b90506102956040518060400160405280601981526020017f52616e64206e756d6265722067656e6572617465643a202573000000000000008152508261084d565b806001819055506102db6040518060400160405280601281526020017f557365722073656c656374696f6e3a20257300000000000000000000000000008152508461084d565b82811415610327576103226040518060400160405280601f81526020017f49742773206120647261772120596f7520626f746820706c61796564202573008152508461084d565b610448565b600083141561038757600181141561035f5761035a60405180606001604052806032815260200161108d603291396107b4565b610386565b6103816040518060600160405280602a81526020016110bf602a913933610988565b600191505b5b60018314156103e75760028114156103bf576103ba604051806060016040528060338152602001611145603391396107b4565b6103e6565b6103e160405180606001604052806026815260200161111f6026913933610988565b600191505b5b600283141561044757600081141561041f5761041a6040518060600160405280603681526020016110e9603691396107b4565b610446565b6104416040518060600160405280602781526020016111786027913933610988565b600191505b5b5b60018214156105a5576001600460003373ffffffffffffffffffffffffffffffffffffffff1673ffffffffffffffffffffffffffffffffffffffff16815260200190815260200160002060008282546104a19190610ef9565b925050819055506000655af3107a40009050478111156104f6576040517f08c379a00000000000000000000000000000000000000000000000000000000081526004016104ed90610df9565b60405180910390fd5b60003373ffffffffffffffffffffffffffffffffffffffff168260405161051c90610d02565b60006040518083038185875af1925050503d8060008114610559576040519150601f19603f3d011682016040523d82523d6000602084013e61055e565b606091505b50509050806105a2576040517f08c379a000000000000000000000000000000000000000000000000000000000815260040161059990610e19565b60405180910390fd5b50505b60026040518060a001604052803373ffffffffffffffffffffffffffffffffffffffff16815260200185815260200183815260200184815260200142815250908060018154018082558091505060019003906000526020600020906005020160009091909190915060008201518160000160006101000a81548173ffffffffffffffffffffffffffffffffffffffff021916908373ffffffffffffffffffffffffffffffffffffffff1602179055506020820151816001015560408201518160020155606082015181600301556080820151816004015550503373ffffffffffffffffffffffffffffffffffffffff167f38055e32d5570bc3457d76edf0fbcac8d71ba350cb4d171d130f459332470f1d848385426040516106ca9493929190610e54565b60405180910390a2505050565b60606002805480602002602001604051908101604052809291908181526020016000905b828210156107ab57838290600052602060002090600502016040518060a00160405290816000820160009054906101000a900473ffffffffffffffffffffffffffffffffffffffff1673ffffffffffffffffffffffffffffffffffffffff1673ffffffffffffffffffffffffffffffffffffffff168152602001600182015481526020016002820154815260200160038201548152602001600482015481525050815260200190600101906106fb565b50505050905090565b61084a816040516024016107c89190610d39565b6040516020818303038152906040527f41304fac000000000000000000000000000000000000000000000000000000007bffffffffffffffffffffffffffffffffffffffffffffffffffffffff19166020820180517bffffffffffffffffffffffffffffffffffffffffffffffffffffffff8381831617835250505050610a24565b50565b6108e58282604051602401610863929190610dc9565b6040516020818303038152906040527f9710a9d0000000000000000000000000000000000000000000000000000000007bffffffffffffffffffffffffffffffffffffffffffffffffffffffff19166020820180517bffffffffffffffffffffffffffffffffffffffffffffffffffffffff8381831617835250505050610a24565b5050565b61098383838360405160240161090193929190610d8b565b6040516020818303038152906040527f07c81217000000000000000000000000000000000000000000000000000000007bffffffffffffffffffffffffffffffffffffffffffffffffffffffff19166020820180517bffffffffffffffffffffffffffffffffffffffffffffffffffffffff8381831617835250505050610a24565b505050565b610a20828260405160240161099e929190610d5b565b6040516020818303038152906040527f319af333000000000000000000000000000000000000000000000000000000007bffffffffffffffffffffffffffffffffffffffffffffffffffffffff19166020820180517bffffffffffffffffffffffffffffffffffffffffffffffffffffffff8381831617835250505050610a24565b5050565b60008151905060006a636f6e736f6c652e6c6f679050602083016000808483855afa5050505050565b600081359050610a5c8161105e565b92915050565b600081359050610a7181611075565b92915050565b600060208284031215610a8957600080fd5b6000610a9784828501610a4d565b91505092915050565b600060208284031215610ab257600080fd5b6000610ac084828501610a62565b91505092915050565b6000610ad58383610c7c565b60a08301905092915050565b610aea81610f4f565b82525050565b610af981610f4f565b82525050565b6000610b0a82610ea9565b610b148185610ecc565b9350610b1f83610e99565b8060005b83811015610b50578151610b378882610ac9565b9750610b4283610ebf565b925050600181019050610b23565b5085935050505092915050565b6000610b6882610eb4565b610b728185610ee8565b9350610b82818560208601610f8b565b610b8b8161104d565b840191505092915050565b6000610ba3603483610ee8565b91507f547279696e6720746f207769746864726177206d6f7265206d6f6e657920746860008301527f616e2074686520636f6e7472616374206861732e0000000000000000000000006020830152604082019050919050565b6000610c09602783610ee8565b91507f4661696c656420746f207769746864726177206d6f6e65792066726f6d20636f60008301527f6e74726163742e000000000000000000000000000000000000000000000000006020830152604082019050919050565b6000610c6f600083610edd565b9150600082019050919050565b60a082016000820151610c926000850182610ae1565b506020820151610ca56020850182610ce4565b506040820151610cb86040850182610ce4565b506060820151610ccb6060850182610ce4565b506080820151610cde6080850182610ce4565b50505050565b610ced81610f81565b82525050565b610cfc81610f81565b82525050565b6000610d0d82610c62565b9150819050919050565b60006020820190508181036000830152610d318184610aff565b905092915050565b60006020820190508181036000830152610d538184610b5d565b905092915050565b60006040820190508181036000830152610d758185610b5d565b9050610d846020830184610af0565b9392505050565b60006060820190508181036000830152610da58186610b5d565b9050610db46020830185610af0565b610dc16040830184610cf3565b949350505050565b60006040820190508181036000830152610de38185610b5d565b9050610df26020830184610cf3565b9392505050565b60006020820190508181036000830152610e1281610b96565b9050919050565b60006020820190508181036000830152610e3281610bfc565b9050919050565b6000602082019050610e4e6000830184610cf3565b92915050565b6000608082019050610e696000830187610cf3565b610e766020830186610cf3565b610e836040830185610cf3565b610e906060830184610cf3565b95945050505050565b6000819050602082019050919050565b600081519050919050565b600081519050919050565b6000602082019050919050565b600082825260208201905092915050565b600081905092915050565b600082825260208201905092915050565b6000610f0482610f81565b9150610f0f83610f81565b9250827fffffffffffffffffffffffffffffffffffffffffffffffffffffffffffffffff03821115610f4457610f43610fef565b5b828201905092915050565b6000610f5a82610f61565b9050919050565b600073ffffffffffffffffffffffffffffffffffffffff82169050919050565b6000819050919050565b60005b83811015610fa9578082015181840152602081019050610f8e565b83811115610fb8576000848401525b50505050565b6000610fc982610f81565b9150610fd483610f81565b925082610fe457610fe361101e565b5b828206905092915050565b7f4e487b7100000000000000000000000000000000000000000000000000000000600052601160045260246000fd5b7f4e487b7100000000000000000000000000000000000000000000000000000000600052601260045260246000fd5b6000601f19601f8301169050919050565b61106781610f4f565b811461107257600080fd5b50565b61107e81610f81565b811461108957600080fd5b5056fe506170657220636f7665727320726f636b2e20436f6e747261637420646f6d696e617465732e2048756d616e73206e676d69526f636b20736d61736865732073636973736f72732c2025732070756c6c73206f666620746865205721526f636b20736d61736865732073636973736f72732e20436f6e747261637420646f6d696e617465732e2048756d616e73206e676d69506170657220636f7665727320726f636b2c2025732070756c6c73206f66662074686520572153636973736f7273206375742070617065722e20436f6e747261637420646f6d696e617465732e2048756d616e73206e676d6953636973736f7273206375742070617065722c2025732070756c6c73206f666620746865205721a2646970667358221220ba35dc85c7a345caf210155e666c953d3c6bc0fde98d14d245d9050a651314b064736f6c634300080000334c6f6f6b2c206d6f6d212054686973206973206120736d61727420636f6e747261637420666f7220525053206265696e6720636f6e7374727563746564",
  "linkReferences": {},
  "deployedLinkReferences": {}
}